:020000040800F2
:10000000F84F0020E9020008F1020008F30200089E
:10001000F5020008F7020008F902000800000000DD
:10002000000000000000000000000000290200089D
:10003000FD02000800000000850200086D080008AD
:100040000303000803030008030300080303000878
:100050000303000803030008030300080303000868
:100060000303000803030008030300080303000858
:100070000303000803030008030300080303000848
:100080000303000803030008030300080303000838
:100090000303000803030008030300080303000828
:1000A0000303000803030008030300080303000818
:1000B0000303000803030008030300080303000808
:1000C00003030008030300080303000803030008F8
:1000D00003030008030300080303000803030008E8
:1000E00003030008030300080303000803030008D8
:1000F00003030008030300080303000803030008C8
:1001000003030008030300080303000803030008B7
:1001100003030008030300080303000803030008A7
:100120000303000803030008030300080303000897
:100130000303000803030008030300080303000887
:100140000303000803030008030300080303000877
:100150000303000803030008030300080303000867
:100160000303000803030008030300080303000857
:100170000303000803030008030300080303000847
:10018000030300080303000800F002F800F03CF845
:100190000AA090E8000C82448344AAF10107DA45E2
:1001A00001D100F031F8AFF2090EBAE80F0013F0F8
:1001B000010F18BFFB1A43F0010318473424000055
:1001C00054240000103A24BF78C878C1FAD85207E6
:1001D00024BF30C830C144BF04680C6070470000C1
:1001E0000023002400250026103A28BF78C1FBD840
:1001F000520728BF30C148BF0B6070471FB502F0DF
:10020000F1F91FBD10B510BD00F059F91146FFF707
:10021000F5FF00F0C3FB00F077F903B4FFF7F2FF3E
:1002200003BC00F07FF900002C4B19680868B0E8A7
:10023000F04F80F30988BFF36F8F4FF0000080F319
:10024000118870470000000008480068006880F3CB
:1002500008884FF0000080F3148862B661B6BFF3DF
:100260004F8FBFF36F8F00DF00BF00BF08ED00E0CE
:10027000DFF80C00016841F470010160704700BFB5
:1002800088ED00E0EFF30980BFF36F8F134B1A681E
:100290001EF0100F08BF20ED108A20E9F04F10600B
:1002A00009B44FF0500080F31188BFF34F8FBFF3B4
:1002B0006F8F01F00DFB4FF0000080F3118809BC37
:1002C00019680868B0E8F04F1EF0100F08BFB0ECD6
:1002D000108A80F30988BFF36F8F704718000020E1
:1002E000EFF3058070470000094880470948004740
:1002F000FEE7FEE7FEE7FEE7FEE7FEE7FEE7FEE7D6
:10030000FEE7FEE704480549054A064B7047000032
:10031000A108000889010008F8490020F84F0020D2
:10032000F84B0020F84B0020032A40F2308010F0F8
:10033000030C00F0158011F8013BBCF1020F624480
:1003400098BF11F801CB00F8013B38BF11F8013B11
:10035000A2F1040298BF00F801CB38BF00F8013BBE
:1003600011F0030300F05780083AC0F0088051F8FC
:10037000043B083A51F804CBA0E80810F5E7121D39
:100380005CBF51F8043B40F8043BAFF30080D20758
:1003900024BF11F8013B11F801CB48BF11F8012B24
:1003A00024BF00F8013B00F801CB48BF00F8012B47
:1003B000704702F0FF0343EA032242EA024200F0E0
:1003C0005EB84FF0000200B51346944696462039B9
:1003D00022BFA0E80C50A0E80C50B1F12001BFF4FE
:1003E000F7AF090728BFA0E80C5048BF0CC05DF864
:1003F00004EB890028BF40F8042B08BF704748BFB2
:1004000020F8022B11F0804F18BF00F8012B704725
:1004100070477047704710B5203AC0F00B80B1E8C4
:100420001850203AA0E81850B1E81850A0E8185029
:10043000BFF4F5AF5FEA027C24BFB1E81850A0E832
:10044000185044BF18C918C0BDE810405FEA827C4C
:1004500024BF51F8043B40F8043B08BF7047D20763
:1004600028BF31F8023B48BF11F8012B28BF20F804
:10047000023B48BF00F8012B70474FF000020429EF
:10048000C0F0128010F0030C3FF49DAFCCF1040CCF
:10049000BCF1020F18BF00F8012BA8BF20F8022BF7
:1004A000A1EB0C01FFF78FBF5FEAC17C24BF00F80E
:1004B000012B00F8012B48BF00F8012B704775464F
:1004C00000F02CF8AE4605006946534620F00700C0
:1004D000854618B020B5FFF715FFBDE820404FF066
:1004E00000064FF000074FF000084FF0000B21F01E
:1004F0000701AC46ACE8C009ACE8C009ACE8C009EB
:10050000ACE8C0098D46704710B50446AFF30080D3
:100510002046BDE81040FFF780BE0000004870474D
:100520009849002001491820ABBEFEE726000200D2
:10053000704700003348006840F008003149086007
:100540003148006840F080702F490860081D00683D
:1005500020F48050091D0860081D006840F080707C
:10056000091D0860081D006840F08070091D0860C2
:100570002548006840F0806023490860081D006835
:1005800020F40050091D0860081D006840F08060DC
:10059000091D0860081D006840F08060091D0860A2
:1005A0001948006840F0805017490860081D00682D
:1005B00020F48040091D0860081D006840F080504C
:1005C000091D0860081D006840F08050091D086082
:1005D0000D48006840F080400B490860081D006825
:1005E00020F40040091D0860081D006840F08040AC
:1005F000091D0860081D006840F08040091D086062
:100600007047000030380240000C02401F4800686C
:1006100040F480501D4908601C481438006840F0C0
:1006200011001A49143908601948006840F428403C
:10063000174908600846406820F0E0004860084616
:10064000006A14490843124908621348006840F0E0
:100650004000114908600E48406820F008000C492D
:1006600048600E48008840F2173108430B49088063
:100670000948406940F00800074948610748008878
:1006800040F04000054908807047000044380240AF
:1006900000000240000050550010024000300140B0
:1006A00001461A48406920F00800184A506141F09C
:1006B000800100BF1648008900F002000028F9D030
:1006C0001348818100BF1248008900F00100002812
:1006D000F9D00F48808900BF0D48008900F0020062
:1006E0000028F9D000200A4A908100BF08480089FC
:1006F00000F001000028F9D00448406940F00800EB
:10070000024A50610248808940B27047001002409E
:1007100000300140184A526922F00802164B5A6113
:1007200000BF164A128902F00202002AF9D0134AC9
:10073000908100BF114A128902F00102002AF9D00B
:100740000E4A928900BF0D4A128902F00202002A65
:10075000F9D00A4A918100BF084A128902F00102C9
:10076000002AF9D0054A9289034A526942F00802E8
:10077000014B5A61704700000010024000300140F8
:100780000CB50020019000903448006840F480309F
:100790003249086000BF3148006800F40030009022
:1007A0000198401C0190009818B90198B0F5A04F2D
:1007B000F1D12A48006800F4003010B10120009007
:1007C00001E0002000900098012846D123484030E5
:1007D000006840F08050214940310860204800689E
:1007E00040F440401E4908601C48083000681B491E
:1007F000083108600846006840F400400860084678
:10080000006840F4A05008601648091F0860081FDF
:10081000006840F08070091F086000BF0F48006842
:1008200000F000700028F9D040F205700E49086011
:100830000A480830006820F00300084908310860C1
:100840000846006840F00200086000BF0348083016
:10085000006800F00C000828F8D10CBD00380240F8
:100860000070004008544007003C024010B500BF33
:10087000502080F31188BFF34F8FBFF36F8F00BFFD
:1008800001F06EFC18B14FF080500449086000BFC1
:10089000002080F3118800BF10BD000004ED00E0CF
:1008A00010B51548006840F47000134908601348FB
:1008B000006840F001001149086000200F4908312C
:1008C00008600E4800680E4908400C4908600D4851
:1008D000091D0860081F006820F48020091F0860B7
:1008E000002006490C310860FFF74AFF4FF0006016
:1008F00001498039086010BD88ED00E000380240F1
:10090000FFFFF6FE103000242148006840F400305C
:100910001F4908601E481038006840F001001C495B
:10092000103908601B48006840F020001949086031
:100930000846406820F0040048600846806840F09F
:10094000100088600846C06820F01000C8600846A3
:10095000006A40F4E06008620846006820F0C000C9
:1009600008600846806840F0400088600846C0681B
:1009700020F0C000C86041F2171007490880081D28
:10098000008842F20C0108430349091D08807047A2
:100990004038024000000240084400401CB5FFF708
:1009A000C9FDFFF7B1FFFFF731FE002202210A2047
:1009B00001F0CEF80C4908600020012103462022F6
:1009C000CDE9001009A10B4801F084FB00200121B2
:1009D00003462022CDE9001007A1094801F07AFB67
:1009E00000F024FF00BFFEE70000002055534154F3
:1009F000523100005D1900085350493100000000D9
:100A0000451700082DE9F04105460E461C480768C9
:100A10001C480068001D00F0DBFC50B91948006854
:100A200090F82C1001208840174909688143164826
:100A30000160681C38B936B112480168091D1348B5
:100A400000F019FD1AE07C190E4800684460BC42B1
:100A500007D20C480168091D0D48006800F0F1FC40
:100A60000CE008480168091D0A48006800F0E9FC2C
:100A700009480068844201D207480460BDE8F0815B
:100A80002C00002018000020300000205C490020CD
:100A9000200000201C0000204800002010B5044663
:100AA00000F0F6FC24480068401C234908602348F5
:100AB000006840B9214804600846006801280DD14B
:100AC00000F098F90AE01E48006838B91B48006831
:100AD000C06AE16A884201D8184804601948006871
:100AE000401C1849086008460068206494F82C10DF
:100AF0000120884014490968084313490860E16AE5
:100B000001EB8101114A02EB8100211D00F0B3FCD1
:100B100000F0E8FC0A48006868B108480068C06A4C
:100B2000E16A884207D24FF0805009490860BFF35C
:100B30004F8FBFF36F8F10BD2800002018000020DA
:100B4000340000204400002030000020A84800208D
:100B500004ED00E010B500F09BFC10480068D0B92F
:100B60000F4800F05EFC0F4800F05BFC0C480E499B
:100B700008600C480D49086000220C210A2000F092
:100B8000E7FF064908600846006820B108A103484D
:100B9000006800F01FFD00F0A5FC10BD5C00002007
:100BA0007049002084490020540000205800002093
:100BB000546D72510000000010B516E000F068FCA2
:100BC0000C48C068C468201D00F002FC0A48006898
:100BD000401E0949086009480068401E074908602E
:100BE00000F080FC204600F05FF804480068002810
:100BF000E4D110BD48490020280000202400002036
:100C000070B504460D46206C70B1216CE06801445B
:100C1000E160D4E90210884201D32168E1602846EE
:100C2000226CE168FFF780FB70BD2DE9F0410446BE
:100C30000F4615464FF00008A66B206C48B9206897
:100C400000282CD1A06801F02FFB80460020A06076
:100C500025E07DB93946226C6068FFF765FB216CA1
:100C6000606808446060D4E90101884217D32068B5
:100C7000606014E03946226CE068FFF755FB216C98
:100C8000E068411AE1602168E068884203D2216C83
:100C9000A068411AE160022D01D106B1761E701CD8
:100CA000A0634046BDE8F08110B50446206B00F01B
:100CB00037FC204600F034FC10BD00000146084A15
:100CC000126812680AB9012200E000220A600A686C
:100CD00022B9034A1268D268106800E00020704709
:100CE0005400002000BFFFF767FF06480068012896
:100CF000F9D94FF0805004490860BFF34F8FBFF31C
:100D00006F8FF0E7A848002004ED00E02DE9F041E6
:100D100006460D4617469846069C0DB9246000E02D
:100D20002760E66325640121204600F03BFF84F83C
:100D30004C80BDE8F0812DE9F05F82460E4690467A
:100D40009B460A9F0C9C4FEA8801A522206BFFF767
:100D500030FBA8F10100216B01EB800929F00709A4
:100D600009F0070008B9012000E0002050B900BFD9
:100D7000502080F31188BFF34F8FBFF36F8F00BFF8
:100D800000BFFEE786B1002507E0715D04F1340085
:100D90004155705D00B902E06D1C0A2DF5D300BF0E
:100DA00000213D20015502E0002084F83400052F89
:100DB00000D30427E762A7640020E064201D00F050
:100DC0003DFB04F1180000F039FB2461C7F1050078
:100DD000A06164620020206584F854005A465146A0
:100DE000484600F0B9FA20600B9808B10B980460EF
:100DF000BDE8F09F10B5002407E004EB84010F4A22
:100E000002EB810000F00DFB641C052CF5D30C48AF
:100E100000F007FB0B4800F004FB0B4800F001FB5F
:100E20000A4800F0FEFA0A4800F0FBFA04480949B3
:100E3000086004480849086010BD0000A848002068
:100E40000C49002020490020344900204849002056
:100E50005C4900201C000020200000202DE9F0410A
:100E600004460D4616461F464FF000086560246193
:100E7000B5420CD8F01BA169884202D34FF001089B
:100E800011E0211D0948006800F0DBFA0BE0BE42CA
:100E900004D2BD4202D34FF0010804E0211D0448F2
:100EA000006800F0CEFA4046BDE8F081580000200E
:100EB0005400002070B5054600F0EAFAA86B08B9A6
:100EC000012400E0002400F00DFB204670BD70B549
:100ED000054600F0DDFAA86BE96B884201D10124D8
:100EE00000E0002400F0FEFA204670BDF8B505468B
:100EF0000F461A480068C068C468201D00F068FAF0
:100F000094F8280000F00400E8B1A06941192B46CC
:100F10003A462046FFF7A2FFD8B1002003462A46F2
:100F200001460090204601F01BFB064656B900BF63
:100F3000502080F31188BFF34F8FBFF36F8F00BF36
:100F400000BFFEE705E094F8280020F0010084F8D7
:100F500028002046216A8847F8BD00005400002080
:100F600070B586B08BE003980028FBDB059C6069B8
:100F700008B9012000E0002010B9201D00F028FA77
:100F800002A800F0DDF8054603980A2875D2DFE8CC
:100F900000F009050739416306083A4200BF00BF67
:100FA00000BF00BF94F8280040F0010084F828003A
:100FB0000498A269811803462A462046FFF74EFF8F
:100FC000F8B12046216A884794F8280000F0040010
:100FD000B8B1002000900498A16942180023194676
:100FE000204601F0BDFA064656B900BF502080F3F6
:100FF0001188BFF34F8FBFF36F8F00BF00BFFEE7B5
:1010000000BF3BE000BF94F8280020F0010084F806
:10101000280033E000BF94F8280040F0010084F875
:1010200028000498A061A06908B1012000E0002018
:1010300050B900BF502080F31188BFF34F8FBFF32A
:101040006F8F00BF00BFFEE7A06941192B462A46FB
:101050002046FFF703FF11E094F8280000F002009B
:1010600018B9204600F05CFA05E094F8280020F05A
:10107000010084F8280001E0FFE700BF00BF002264
:1010800003A90448006800F02BFF00287FF46BAF31
:1010900006B070BD5C000020F8B505460C4600F0B7
:1010A0000FFC684600F04CF80646009820BB44B997
:1010B000B54206D801F0A8F931462846FFF716FFD9
:1010C0001CE03CB10E480068006808B9012000E04F
:1010D00000200446A91B22460A48006800F090FA46
:1010E00001F092F950B94FF0805007490860BFF302
:1010F0004F8FBFF36F8F01E001F086F9F8BD00005C
:10110000580000205C00002004ED00E00A49096856
:10111000096809B9012100E0002121B14FF0FF3138
:10112000064A116006E004490968C968C868034AAC
:1011300041681160704700001C000020480000203A
:1011400070B5044601F006F8054607480068854278
:1011500004D200F00BF80120206001E000202060A4
:1011600001480560284670BD640000202DE9F84361
:1011700034E025480068C068056823480068C068F6
:10118000C468201D00F024F92046216A884794F89D
:10119000280000F0040008B3A0694619AE4207D940
:1011A00066602461211D1848006800F04AF915E0C6
:1011B000002003462A4601460090204601F0D0F95F
:1011C000074657B900BF502080F31188BFF34F8FF7
:1011D000BFF36F8F00BF00BFFEE700BF0A48006883
:1011E000006808B9012000E000200028C1D00648AE
:1011F000D0F8008005480068034908600348C0F83B
:101200000080BDE8F8830000540000205800002052
:101210000E480068401C08B9012000E0002050B9C9
:1012200000BF502080F31188BFF34F8FBFF36F8F43
:1012300000BF00BFFEE700BF502080F31188BFF35E
:101240004F8FBFF36F8F00BF00BFFEE70C00002081
:1012500008B500BF6846FFF731FD044620460099F7
:10126000FFF71AFFFFF77CFEF4E770B5044600F0C5
:101270000FF994F9455010E0606A08B9012000E0C8
:10128000002038B904F1240001F072F818B100F020
:1012900017FA00E003E0681E45B2002DECDC00BF49
:1012A000FF2084F8450000F01DF900F0F1F894F9F2
:1012B000445010E0206908B9012000E0002048B93E
:1012C00004F1100001F054F808B100F0F9F9681EBB
:1012D00045B200E001E0002DECDC00BFFF2084F807
:1012E000440000F0FFF870BD70B50446002504F01E
:1012F000070020B104F00700C0F10800044400F02A
:10130000DFFA1248006820B9114820F007000F49A1
:10131000086010480068204444F2F871884210D2F6
:101320000C48006820440B490968884209D90748DD
:1013300000680849096845180648006820440549BE
:10134000086001F061F8284670BD00000800002028
:101350007000002004000020001F4FF08073036025
:10136000001F21F001030360001F054B03601438C8
:101370000260001F6FF00203036020387047000016
:101380001112000838B50446002C04DA65420EA09C
:1013900000F016FB00E025460A2095FBF0F100FB6B
:1013A00011503030C0B28DF801000A2095FBF0F0EA
:1013B0003030C0B28DF80000684600F001FB03A099
:1013C00000F0FEFA38BD00002D00000020200000D3
:1013D00001460A69D1E901309860D1E901035860FA
:1013E0005068884201D18868506000200861106808
:1013F000401E10601068704770B5044654B900BFB5
:10140000502080F31188BFF34F8FBFF36F8F00BF61
:1014100000BFFEE700F03CF8A56B00F063F828463B
:1014200070BD00F1080141604FF0FF31816000F1B3
:101430000801C16001610021016070470021016164
:10144000704710B502460B685C1C0CB9106907E0C8
:1014500002F1080000E04068446824689C42FAD920
:1014600044684C604C68A160886041600A611468FF
:10147000641C146010BD42684A6093688B60936876
:1014800059609160086103685B1C0360704700004D
:1014900000BF502080F31188BFF34F8FBFF36F8FD1
:1014A00000BF0E480068401C0C49086008460068F0
:1014B000012812D10A480068C0B208B9012000E032
:1014C000002050B900BF502080F31188BFF34F8F28
:1014D000BFF36F8F00BF00BFFEE770470C00002016
:1014E00004ED00E00D48006850B900BF502080F3C3
:1014F0001188BFF34F8FBFF36F8F00BF00BFFEE7B0
:1015000006480068401E054908600846006820B982
:10151000002080F3118800BF00BF70470C0000203E
:1015200008B9012100E0002151B900BF502181F329
:101530001188BFF34F8FBFF36F8F00BF00BFFEE76F
:101540007047000000204FF0E021086188610248E8
:1015500048610720086170473F90020070B5FEF7B0
:10156000BFFE0446102C16D304F1E02090F8F0538F
:1015700015480078854201DB012000E0002050B9C9
:1015800000BF502080F31188BFF34F8FBFF36F8FE0
:1015900000BF00BFFEE70D48006800F4E0600C49A2
:1015A0000968884201D8012000E0002050B900BF3E
:1015B000502080F31188BFF34F8FBFF36F8F00BFB0
:1015C00000BFFEE770BD0000100000200CED00E041
:1015D00014000020024600200BE0084B53F8303086
:1015E00033B9064B43F8301003EBC0035A6002E0F6
:1015F000401C0828F1D300BF704700006848002055
:101600002DE9F04105460E4617462C46FFF740FFF0
:1016100094F94400401C10B9002084F8440094F967
:101620004500401C10B9002084F84500FFF75AFF20
:10163000A06B28B93A46314604F1240000F062F864
:101640002046FFF712FEBDE8F081000070B50446A9
:101650000025D4B11248006808B9012000E000203C
:1016600050B900BF502080F31188BFF34F8FBFF3F4
:101670006F8F00BF00BFFEE700F022F90021204677
:10168000FFF7C0F900F0C0FE05463DB94FF08050AD
:1016900004490860BFF34F8FBFF36F8F70BD000028
:1016A0005000002004ED00E003490968016003498F
:1016B0000968416070470000400000202C000020B5
:1016C00001200149086070473C00002070B50446C5
:1016D0000D4654B900BF502080F31188BFF34F8FDF
:1016E000BFF36F8F00BF00BFFEE7054801681831E8
:1016F0002046FFF7A6FE01212846FFF783F970BDBB
:101700001800002070B505460E46144655B900BFB6
:10171000502080F31188BFF34F8FBFF36F8F00BF4E
:1017200000BFFEE70648016818312846FFF7A3FE10
:101730000CB14FF0FF3621463046FFF763F970BD1C
:10174000180000201CB5002000E0401C34498842ED
:10175000FBDB63212020FEF7DDFF5FE02920FEF7A1
:101760009FFF01902B20FEF79BFF0090BDF9040026
:1017700010F1140F06DA2B48006840F48050294914
:10178000086005E02748006820F48050254908607B
:10179000BDF90400142806DD2248006840F48040AA
:1017A0002049086005E01F48006820F480401D497A
:1017B0000860BDF9000010F1140F06DA194800683E
:1017C00040F400401749086005E01648006820F41E
:1017D000004014490860BDF90000142806DD1148D6
:1017E000006840F400500F49086005E00D480068AB
:1017F00020F400500B49086000231A4601A90A484A
:10180000006800F01BFA00231A4669460648006883
:1018100000F014FA4FF4FA70FFF718FF9EE700008B
:1018200040420F00140C0240000000201CB51D486F
:1018300000210B460C22CDE900101BA11C4800F032
:1018400049FC0446012C02D100F060FE0446012C44
:1018500015D100BF502080F31188BFF34F8FBFF325
:101860006F8F00BF4FF0FF3012490860012012490E
:10187000086000201149086000F0B6F810E0601C14
:1018800008B1012000E0002050B900BF502080F3D3
:101890001188BFF34F8FBFF36F8F00BF00BFFEE70C
:1018A0001CBD00004C00002049444C4500000000D5
:1018B000E50C000848000020340000202C00002027
:1018C00002480068401C0149086070475000002031
:1018D0001D48006818B101201C49086032E0002052
:1018E0001A4908601A480068B0FA80F0C0F11F0178
:1018F00001EB8100174A52F8200008B1012000E0F6
:10190000002050B900BF502080F31188BFF34F8FE3
:10191000BFF36F8F00BF00BFFEE701EB81020D4BED
:1019200003EB820042685268426000F1080243689B
:10193000934202D14268526842604268D268064BC4
:101940001A6000BF70470000500000203C000020DB
:1019500030000020A84800201800002008B521E031
:1019600011480068FFF748FDE0B1002269460E48C3
:10197000006800F0B5FA0DA000F022F8BDF90000F3
:10198000FFF700FD002269460748006800F0A8FA4A
:1019900008A000F015F8BDF90000FFF7F3FC07A060
:1019A00000F00EF8DCE700000000002078203D2069
:1019B0000000000079203D20000000000D0A00001A
:1019C00000210BE000BF074A128802F04002002A03
:1019D000F9D0425C034B1B1D1A80491C425C002A53
:1019E000F0D17047004400401CB55248006852498D
:1019F000884201D0012000E0002050B900BF5020F3
:101A000080F31188BFF34F8FBFF36F8F00BF00BF0C
:101A1000FEE7484800684849491E884201D0012035
:101A200000E0002050B900BF502080F31188BFF3C0
:101A30004F8FBFF36F8F00BF00BFFEE73F490846DF
:101A400000780190FF200A46107008460078009048
:101A50009DF8000000F0F0009DF80020904201D1B8
:101A6000012000E0002050B900BF502080F3118811
:101A7000BFF34F8FBFF36F8F00BF00BFFEE79DF82E
:101A8000000000F050002E4A107007202D4A106010
:101A900009E02C480068401E2A4A10609DF80000AA
:101AA0004006000E00909DF8000000F080008028A5
:101AB000EFD024480068C0F10700042801D10120BC
:101AC00000E0002050B900BF502080F31188BFF320
:101AD0004F8FBFF36F8F00BF00BFFEE7194800684C
:101AE0000002184A10601046008800F4E0601060A0
:101AF000124A019810700F482030006840F47000BE
:101B00000C49203108600846006840F070400860C9
:101B1000FFF718FD00200C490860FEF7A9FB0B48F1
:101B2000006840F0404009490860FEF78DFB002046
:101B30001CBD000000ED00E071C20F4100E400E0B8
:101B400010000020140000200C00002034EF00E002
:101B50002DE9F84305460E4617460DB1012000E079
:101B6000002050B900BF502080F31188BFF34F8F81
:101B7000BFF36F8F00BF00BFFEE705FB06F808F15B
:101B80005000FFF7B1FB04464CB1A14609F15009E2
:101B90003B464A46314628460094FFF7B7F82046B0
:101BA000BDE8F88370B505460E462C4654B900BF13
:101BB000502080F31188BFF34F8FBFF36F8F00BFAA
:101BC00000BFFEE7FFF764FCD4E90F12206801FBB9
:101BD0000200A0600020A06320686060E06B401EEF
:101BE000226C216800FB0211E160FF2084F84400B0
:101BF00084F845009EB9206908B9012000E0002062
:101C0000A8B904F1100000F0B3FB80B14FF0805090
:101C100009490860BFF34F8FBFF36F8F07E004F1EE
:101C20001000FFF7FEFB04F12400FFF7FAFBFFF7BB
:101C300059FC012070BD000004ED00E02DE9FF43D8
:101C400083B0064688461D464FF00009344654B915
:101C500000BF502080F31188BFF34F8FBFF36F8F09
:101C600000BF00BFFEE7B8F1000F01D1206C08B93A
:101C7000012000E0002050B900BF502080F31188FF
:101C8000BFF34F8FBFF36F8F00BF00BFFEE7022D82
:101C900002D1E06B012801D1012000E0002050B901
:101CA00000BF502080F31188BFF34F8FBFF36F8FB9
:101CB00000BF00BFFEE700F03DFA08B9059808B97B
:101CC000012000E0002050B900BF502080F31188AF
:101CD000BFF34F8FBFF36F8F00BF00BFFEE700BFA2
:101CE000FFF7D6FBA06BE16B884201D3022D28D110
:101CF0002A4641462046FEF798FF0746606A08B923
:101D0000012000E0002068B904F1240000F030FB5D
:101D100088B14FF0805032490860BFF34F8FBFF356
:101D20006F8F08E03FB14FF080502D490860BFF33E
:101D30004F8FBFF36F8FFFF7D5FB012007B0BDE8D2
:101D4000F083059818B9FFF7CDFB0020F6E7B9F14D
:101D5000000F04D101A8FFF7A7FC4FF00109FFF71E
:101D6000C1FBFFF7ADFDFFF793FB94F94400401C66
:101D700010B9002084F8440094F94500401C10B9C3
:101D8000002084F84500FFF7ADFB05A901A800F08D
:101D90005BF9F0B92046FFF79AF8A0B104F1100002
:101DA0000599FFF793FC2046FFF75FFA00F02CFB44
:101DB000002895D14FF0805009490860BFF34F8F3C
:101DC000BFF36F8F8CE72046FFF74FFA00F01CFB44
:101DD00086E72046FFF749FA00F016FB0020ADE742
:101DE00004ED00E02DE9F84F07468A4690461E466E
:101DF0003C4654B900BF502080F31188BFF34F8F89
:101E0000BFF36F8F00BF00BFFEE7BAF1000F01D133
:101E1000206C08B9012000E0002050B900BF50201C
:101E200080F31188BFF34F8FBFF36F8F00BF00BFE8
:101E3000FEE7022E02D1E06B012801D1012000E073
:101E4000002050B900BF502080F31188BFF34F8F9E
:101E5000BFF36F8F00BF00BFFEE7FFF77FFB00BF40
:101E60005021EFF3118081F31188BFF34F8FBFF33F
:101E70006F8F00BF0546A06BE16B884201D3022E35
:101E800025D194F945B0A06B0090324651462046CA
:101E9000FEF7CBFE0BF1010088B9606A08B901209A
:101EA00000E0002050B904F1240000F061FA28B1EC
:101EB000B8F1000F02D00120C8F8000004E00BF1D7
:101EC000010040B284F845004FF0010901E04FF0F5
:101ED000000900BF85F3118800BF4846BDE8F88FB0
:101EE0002DE9F74183B005460E464FF000082C4619
:101EF00054B900BF502080F31188BFF34F8FBFF358
:101F00006F8F00BF00BFFEE70EB9206C08B901203B
:101F100000E0002050B900BF502080F31188BFF3CB
:101F20004F8FBFF36F8F00BF00BFFEE700F002F9D5
:101F300008B9059808B9012000E0002050B900BF99
:101F4000502080F31188BFF34F8FBFF36F8F00BF16
:101F500000BFFEE700BFFFF79BFAA76BF7B1314662
:101F60002046FEF74DFE781EA063206908B90120C7
:101F700000E0002060B904F1100000F0F9F938B178
:101F80004FF080502F490860BFF34F8FBFF36F8F22
:101F9000FFF7A8FA012006B0BDE8F081059818B94E
:101FA000FFF7A0FA0020F6E7B8F1000F04D101A86E
:101FB000FFF77AFB4FF00108FFF794FAFFF780FC78
:101FC000FFF766FA94F94400401C10B9002084F829
:101FD000440094F94500401C10B9002084F84500E5
:101FE000FFF780FA05A901A800F02EF8F0B9204605
:101FF000FEF760FFA0B104F124000599FFF766FB2E
:102000002046FFF732F900F0FFF90028A3D14FF086
:1020100080500C490860BFF34F8FBFF36F8F9AE772
:102020002046FFF722F900F0EFF994E72046FFF78A
:102030001CF900F0E9F92046FEF73CFF00288AD0A1
:102040000020A8E704ED00E070B505460C4655B940
:1020500000BF502080F31188BFF34F8FBFF36F8F05
:1020600000BF00BFFEE754B900BF502080F31188C5
:10207000BFF34F8FBFF36F8F00BF00BFFEE7FFF7C7
:1020800007FA124802686868131A2068401C08B9E9
:10209000002617E00E4928680968884204D068685D
:1020A000904201D801260DE02068984207D92068A7
:1020B000C01A20602846FFF7F7FA002602E0002049
:1020C00020600126FFF70EFA304670BD2C0000207C
:1020D000400000202DE9FF4F85B080468946174615
:1020E000DDE912ABB800FFF7FFF8064656B15820FD
:1020F000FFF7FAF804460CB1266304E03046FFF718
:102100000FFA00E000247CB10020CDE900ABCDE95E
:1021100002403A4649464046089BFEF70CFE2046E0
:10212000FEF7BCFC012501E04FF0FF35284609B061
:10213000BDE8F08F0549096809B9012005E00449A7
:10214000096809B9022000E000207047340000202F
:102150005000002001490868704700002C00002052
:102160002DE9F0414FF000084448006800287CD178
:1021700043480068451C4248056015BB414800685B
:10218000006808B9012000E0002050B900BF5020CD
:1021900080F31188BFF34F8FBFF36F8F00BF00BF75
:1021A000FEE738480768384800683649086036480E
:1021B000076036480068401C34490860FEF7A6FFF7
:1021C00000BF3348006885423CD300BF2D480068FB
:1021D000006808B9012000E0002020B14FF0FF3076
:1021E0002B4908602DE027480068C068C46866680D
:1021F000B54202D22648066023E0201DFFF7E8F82A
:10220000A06A18B104F11800FFF7E2F894F82C1056
:10221000012088401F49096808431E490860E16A97
:1022200001EB81011C4A02EB8100211DFFF723F91C
:102230001A49E06A0968C96A8842C7D34FF00108A1
:10224000C4E700BF15480068C06A00EB800012496F
:1022500051F82000012801D94FF00108104800680A
:1022600008B14FF0010805E0FFE70E480068401C88
:102270000C4908604046BDE8F08100005000002095
:102280002C0000201C000020200000204000002026
:102290004800002030000020A8480020180000203E
:1022A0003C0000203800002070B505462C46002672
:1022B000002D55D02B480068844201D1012000E058
:1022C000002050B900BF502080F31188BFF34F8F1A
:1022D000BFF36F8F00BF00BFFEE7E06C50B900BFD7
:1022E000502080F31188BFF34F8FBFF36F8F00BF73
:1022F00000BFFEE7E06C401EE064A16CE06A88422B
:102300002ED0E06C60BB201DFFF762F878B9E06A60
:1023100000EB8000144951F8200040B994F82C10CB
:102320000120884011490968814310480160A06C70
:10233000E062E06AC0F10500A06194F82C10012071
:1023400088400A490968084308490860E16A01EBC6
:102350008101054A02EB8100211DFFF78CF801265F
:10236000304670BD18000020A84800203000002032
:1023700070B50646F068C46854B900BF502080F3B9
:102380001188BFF34F8FBFF36F8F00BF00BFFEE711
:1023900004F11800FFF71CF815480068A8B9201DC3
:1023A000FFF716F894F82C100120884011490968AD
:1023B000084310490860E16A01EB81010E4A02EB13
:1023C0008100211DFFF757F804E004F118010B48C4
:1023D000FFF751F80A49E06A0968C96A884204D9D6
:1023E000012501200749086000E00025284670BD4E
:1023F0005000002030000020A84800203449002070
:10240000180000203C00002070B50024002636484B
:10241000006850B900BF502080F31188BFF34F8F80
:10242000BFF36F8F00BF00BFFEE7FFF731F82E4804
:102430000068401E2C4908600846006800284FD1FB
:102440002A48006800284BD024E02948C068C468A6
:1024500004F11800FEF7BCFF201DFEF7B9FF94F849
:102460002C1001208840234909680843214908604D
:10247000E16A01EB8101204A02EB8100211DFEF798
:10248000FAFF1E49E06A0968C96A884202D301203E
:102490001B4908601648006808B9012000E00020C8
:1024A0000028D2D00CB1FEF731FE1648056865B1A0
:1024B00000BFFFF755FE10B10120114908606D1EE5
:1024C000002DF6D100200F4908600D48006838B192
:1024D000012630070C490860BFF34F8FBFF36F8FA1
:1024E000FFF700F8304670BD5000002028000020A3
:1024F0003449002030000020A848002018000020A7
:102500003C0000203800002004ED00E01CB5002451
:10251000FEF720FB0D48006850B10D480221002352
:102520001822CDE900100BA10C48FFF7D3FD04469B
:1025300054B900BF502080F31188BFF34F8FBFF311
:102540006F8F00BF00BFFEE720461CBD5C0000206F
:1025500060000020546D7220537663005112000811
:102560002DE9FE4304460D4616461F46DDF8288039
:102570004FF0000954B900BF502080F31188BFF319
:102580004F8FBFF36F8F00BF00BFFEE71448006896
:1025900010B3009501960294062D15DAFFF7CAFDD7
:1025A000022808D10023424669460D480068FFF71B
:1025B00045FB814610E000231A466946084800683A
:1025C000FFF73CFB814607E000233A466946044892
:1025D0000068FFF707FC81464846BDE8FE8300001F
:1025E0005C0000204FF04070E1EE100A70470000E0
:1025F000102600080000002068000000C401000848
:102600007826000868000020904F0000E0010008D4
:10261000000000000000000000000000AAAAAAAA12
:1026200000000000000000000000000000000000AA
:10263000000000000000000000000000000000009A
:10264000000000000000000000000000000000008A
:10265000000000000000000000000000000000007A
:10266000000000000000000000000000000000006A
:08267000000000000000000062
:04000005080002E904
:00000001FF
