:020000040800F2
:10000000F84F0020E9020008F1020008F30200089E
:10001000F5020008F7020008F902000800000000DD
:10002000000000000000000000000000290200089D
:10003000FD02000800000000850200088908000891
:100040000303000803030008030300080303000878
:100050000303000803030008030300080303000868
:100060000303000803030008030300080303000858
:100070000303000803030008030300080303000848
:100080000303000803030008030300080303000838
:100090000303000803030008030300080303000828
:1000A0000303000803030008030300080303000818
:1000B0000303000803030008030300080303000808
:1000C00003030008030300080303000803030008F8
:1000D00003030008030300080303000803030008E8
:1000E00003030008030300080303000803030008D8
:1000F00003030008030300080303000803030008C8
:1001000003030008030300080303000803030008B7
:1001100003030008030300080303000803030008A7
:100120000303000803030008030300080303000897
:100130000303000803030008030300080303000887
:100140000303000803030008030300080303000877
:100150000303000803030008030300080303000867
:100160000303000803030008030300080303000857
:100170000303000803030008030300080303000847
:10018000030300080303000800F002F800F03CF845
:100190000AA090E8000C82448344AAF10107DA45E2
:1001A00001D100F031F8AFF2090EBAE80F0013F0F8
:1001B000010F18BFFB1A43F0010318475C3500001C
:1001C0007C350000103A24BF78C878C1FAD85207AD
:1001D00024BF30C830C144BF04680C6070470000C1
:1001E0000023002400250026103A28BF78C1FBD840
:1001F000520728BF30C148BF0B6070471FB503F0DE
:1002000037FA1FBD10B510BD00F06CF91146FFF7AD
:10021000F5FF00F0B5FE00F08AF903B4FFF7F2FF36
:1002200003BC00F08DF900002C4B19680868B0E899
:10023000F04F80F30988BFF36F8F4FF0000080F319
:10024000118870470000000008480068006880F3CB
:1002500008884FF0000080F3148862B661B6BFF3DF
:100260004F8FBFF36F8F00DF00BF00BF08ED00E0CE
:10027000DFF80C00016841F470010160704700BFB5
:1002800088ED00E0EFF30980BFF36F8F134B1A681E
:100290001EF0100F08BF20ED108A20E9F04F10600B
:1002A00009B44FF0500080F31188BFF34F8FBFF3B4
:1002B0006F8F01F009FE4FF0000080F3118809BC38
:1002C00019680868B0E8F04F1EF0100F08BFB0ECD6
:1002D000108A80F30988BFF36F8F704718000020E1
:1002E000EFF3058070470000094880470948004740
:1002F000FEE7FEE7FEE7FEE7FEE7FEE7FEE7FEE7D6
:10030000FEE7FEE704480549054A064B7047000032
:10031000BD08000889010008F8490020F84F0020B6
:10032000F84B0020F84B0020032A40F2308010F0F8
:10033000030C00F0158011F8013BBCF1020F624480
:1003400098BF11F801CB00F8013B38BF11F8013B11
:10035000A2F1040298BF00F801CB38BF00F8013BBE
:1003600011F0030300F06280083AC0F0088051F8F1
:10037000043B083A51F804CBA0E80810F5E7121D39
:100380005CBF51F8043B40F8043BAFF30080D20758
:1003900024BF11F8013B11F801CB48BF11F8012B24
:1003A00024BF00F8013B00F801CB48BF00F8012B47
:1003B000704702F0FF0343EA032242EA024200F0E0
:1003C00069B84FF0000200B51346944696462039AE
:1003D00022BFA0E80C50A0E80C50B1F12001BFF4FE
:1003E000F7AF090728BFA0E80C5048BF0CC05DF864
:1003F00004EB890028BF40F8042B08BF704748BFB2
:1004000020F8022B11F0804F18BF00F8012B704725
:1004100070477047704710B500F05CF8006810BD79
:1004200010B5044600F056F8046010BD10B5203A2F
:10043000C0F00B80B1E81850203AA0E81850B1E89D
:100440001850A0E81850BFF4F5AF5FEA027C24BF53
:10045000B1E81850A0E8185044BF18C918C0BDE84A
:1004600010405FEA827C24BF51F8043B40F8043B13
:1004700008BF7047D20728BF31F8023B48BF11F8C8
:10048000012B28BF20F8023B48BF00F8012B704722
:100490004FF000020429C0F0128010F0030C3FF46A
:1004A00092AFCCF1040CBCF1020F18BF00F8012B85
:1004B000A8BF20F8022BA1EB0C01FFF784BF5FEA75
:1004C000C17C24BF00F8012B00F8012B48BF00F8C5
:1004D000012B70470048704798490020004870473A
:1004E000984900207546FFF7F9FFAE4605006946BA
:1004F000534620F00700854618B020B5FFF702FFED
:10050000BDE820404FF000064FF000074FF0000814
:100510004FF0000B21F00701AC46ACE8C009ACE895
:10052000C009ACE8C009ACE8C0098D46704710B5F9
:100530000446AFF300802046BDE81040FFF76DBED3
:1005400001491820ABBEFEE72600020070470000FC
:100550003348006840F008003149086031480068BD
:1005600040F080702F490860081D006820F480501A
:10057000091D0860081D006840F08070091D0860B2
:10058000081D006840F08070091D0860254800685B
:1005900040F0806023490860081D006820F4005086
:1005A000091D0860081D006840F08060091D086092
:1005B000081D006840F08060091D08601948006847
:1005C00040F0805017490860081D006820F4804002
:1005D000091D0860081D006840F08050091D086072
:1005E000081D006840F08050091D08600D48006833
:1005F00040F080400B490860081D006820F400406E
:10060000091D0860081D006840F08040091D086051
:10061000081D006840F08040091D08607047000018
:1006200030380240000C02401F48006840F48050FF
:100630001D4908601C481438006840F011001A4930
:10064000143908601948006840F4284017490860C8
:100650000846406820F0E00048600846006A1449F7
:100660000843124908621348006840F040001149ED
:1006700008600E48406820F008000C4948600E48A9
:10068000008840F2173108430B4908800948406947
:1006900040F00800074948610748008840F04000E2
:1006A00005490880704700004438024000000240BD
:1006B00000005055001002400030014001461A4829
:1006C000406920F00800184A506141F0800100BFE5
:1006D0001648008900F002000028F9D013488181F3
:1006E00000BF1248008900F001000028F9D00F482F
:1006F000808900BF0D48008900F002000028F9D071
:1007000000200A4A908100BF0848008900F00100DB
:100710000028F9D00448406940F00800024A5061BE
:100720000248808940B2704700100240003001400A
:10073000184A526922F00802164B5A6100BF164A45
:10074000128902F00202002AF9D0134A908100BFF8
:10075000114A128902F00102002AF9D00E4A928948
:1007600000BF0D4A128902F00202002AF9D00A4A9B
:10077000918100BF084A128902F00102002AF9D0D3
:10078000054A9289034A526942F00802014B5A61B4
:100790007047000000100240003001400CB50020FE
:1007A000019000903448006840F48030324908607D
:1007B00000BF3148006800F4003000900198401CF0
:1007C0000190009818B90198B0F5A04FF1D12A48CE
:1007D000006800F4003010B10120009001E000201A
:1007E00000900098012846D123484030006840F02E
:1007F00080502149403108602048006840F4404062
:100800001E4908601C48083000681B490831086010
:100810000846006840F4004008600846006840F45C
:10082000A05008601648091F0860081F006840F0C3
:100830008070091F086000BF0F48006800F000705A
:100840000028F9D040F205700E4908600A480830C7
:10085000006820F003000849083108600846006875
:1008600040F00200086000BF03480830006800F054
:100870000C000828F8D10CBD003802400070004080
:1008800008544007003C024010B500BF502080F3E0
:100890001188BFF34F8FBFF36F8F00BF01F094FF3C
:1008A00018B14FF080500449086000BF002080F369
:1008B000118800BF10BD000004ED00E010B5154820
:1008C000006840F47000134908601348006840F065
:1008D00001001149086000200F49083108600E48E6
:1008E00000680E4908400C4908600D48091D086061
:1008F000081F006820F48020091F086000200649B6
:100900000C310860FFF74AFF4FF000600149803961
:10091000086010BD88ED00E000380240FFFFF6FEE1
:10092000103000242148006840F400301F4908605E
:100930001E481038006840F001001C49103908605A
:100940001B48006840F020001949086008464068CC
:1009500020F0040048600846806840F0100088607D
:100960000846C06820F01000C8600846006A40F4DD
:10097000E06008620846006820F0C0000860084691
:10098000806840F0400088600846C06820F0C000E1
:10099000C86041F2171007490880081D008842F21C
:1009A0000C0108430349091D088070474038024084
:1009B000000002400844004003B401984100009840
:1009C00050EAC12018BF04204A0D18BF40F00100B2
:1009D00040F2FF72B2EB515F08BF40F00200012805
:1009E00008BF052002B0704770B59B482DED020B83
:1009F0002DED068B079D25F00044A04218DC97489A
:100A0000844202DC0AD1069840B19DED060BBDEC94
:100A1000068B02B0BDE8704000F00BBA002DCCBFD1
:100A20009FED8F0B9FED900BBDEC068B02B070BD60
:100A30008F48A04215DD8F48A042D8BF4FF0FF3449
:100A400058DD9DED060B51EC100BFFF7B5FF0428A8
:100A500008BF00F0F9F99DED060BBDEC068B02B066
:100A600070BD9DED060B51EC100B00F0FDF9CDE9CA
:100A7000060181489FED828BA0423CDD8248A04266
:100A80001FDD00249FED82AB9DED060B53EC1A2B6E
:100A900051EC100B02F0E6F89DED060B41EC190B42
:100AA00053EC1A2B51EC100B02F022FB53EC182BD9
:100AB00002F0F4FC53EC192B02F07CF9CDE90601AD
:100AC00049E09DED060B012453EC182B51EC100B63
:100AD00002F0C8F89DED060B41EC190B53EC182BF6
:100AE00051EC100B02F0DAFC53EC192B02F062F916
:100AF000CDE906012FE06848A0421FDD02249FEDEA
:100B0000689B9DED060B53EC192B51EC100B02F07A
:100B1000EFFA53EC182B02F0A5F89DED060B41EC13
:100B2000180B53EC192B51EC100B02F0B7FC53ECE3
:100B3000182B02F03FF9CDE906010CE09DED060B04
:100B4000032453EC102B9FED580B51EC100B02F0CB
:100B500031F9CDE906019DED060B53EC102B51EC5C
:100B6000100B02F0C5FA41EC180B53EC182B02F0F5
:100B7000BFFA41EC190B4E480621B0EE490AF0EEDF
:100B8000690A784400F0D9F853EC182B51EC100B9B
:100B900002F0AEFA41EC180B4648B0EE490AF0EE0E
:100BA000690A0521784400F0C8F853EC192B51EC80
:100BB000100B02F09DFA41EC100B51EC180B53ECAA
:100BC000102B002C0EDA02F04DF89DED061B53ECB5
:100BD000112B02F08DFA9DED061B53EC112B02F048
:100BE00085FB35E002F03EF89DED061B53EC112B22
:100BF00002F07EFA41EC100B2F48784400EBC40061
:100C000090ED001B51EC100B53EC112B02F046FC45
:100C10009DED061B53EC112B02F040FC41EC100B38
:100C20002648784400EBC40090ED001B51EC100BFB
:100C300053EC112B02F05AFB41EC100B002DA2BF1C
:100C4000BDEC068B02B070BD51EC100B01F0FEFF45
:100C500041EC100B01E70000000010440000F07FA1
:100C6000182D4454FB21F93F182D4454FB21F9BFA2
:100C70000000DC3F0000203E0000F33F00000000C9
:100C8000000000000000F03F0000E63F0000000010
:100C90000000000000000040008003400000000051
:100CA000000000000000F83F000000000000F0BF5E
:100CB000622B0000182B0000A22A00005A2A000014
:100CC00000B52DED048BB0EE409AF0EE609A83B043
:100CD00051EC190B02F016FB41EC180B18EE100A40
:100CE00018EE901A8DED008B002818BF01200843E4
:100CF00020F00040C0F17F6000F1E040C00F14D050
:100D000019EE101A19EE900A8DED009B002918BFFC
:100D10000121084320F00040C0F17F6000F1E04075
:100D2000C00F04BF0120FFF77BFBB0EE480A03B001
:100D3000F0EE680ABDEC048B00BD70B504462DEDE5
:100D4000028B4D1E00EBC500B0EE408AF0EE608ACB
:100D500090ED000B35F0060017D053EC182B51EC3A
:100D6000100B02F0C5F941EC100B6D1E04EBC50031
:100D700090ED001B51EC100B53EC112B01F072FFA6
:100D800041EC100B35F00600E7D1022D36D0042DD2
:100D90001CD0062D1CBFBDEC028B70BD53EC182B74
:100DA00051EC100B02F0A4F994ED0A1B53EC112B3B
:100DB00001F058FF53EC182B02F09AF994ED081B40
:100DC00053EC112B01F04EFF41EC100B53EC182BA0
:100DD00051EC100B02F08CF994ED061B53EC112B27
:100DE00001F040FF53EC182B02F082F994ED040B54
:100DF00053EC102B01F036FF41EC100B53EC182B89
:100E000051EC100B02F074F994ED021B53EC112B12
:100E100001F028FF53EC182B02F06AF994ED001B47
:100E200053EC112B01F01EFFBDEC028B41EC100BBB
:100E300070BD10B553EC102B51EC100B01F012FFEC
:100E400041EC100B10BD00009FED050B10B553ECED
:100E5000102B51EC100B02F04BF941EC100B10BDB4
:100E6000000000000000001082B0CDE9000121F078
:100E7000004001909DED000B02B051EC100B70474B
:100E800070B52DED0C8B06460D46144605FB05F19D
:100E900004FB041002F015F941EC1D0BB0EE4D0AF5
:100EA000F0EE6D0AFFF70CFFB0EE40BAF0EE60BA5C
:100EB000304602F006F941EC1C0B53EC1B2B01F001
:100EC00079FF41EC1A0BB0EE4A0AF0EE6A0AFFF71E
:100ED0008BFDB0EE409AF0EE609A9FED070B53EC5D
:100EE000102B51EC190B02F003F941EC180B02F036
:100EF000B9F8BDEC0C8B70BDE79AD56194A94C4054
:100F000070B52DED0C8B05460E46144605FB05F11C
:100F100004FB041002F0D5F841EC1D0BB0EE4D0AB5
:100F2000F0EE6D0AFFF7CCFEB0EE40BAF0EE60BA1C
:100F3000304602F0C6F841EC1C0B53EC1B2B01F0C1
:100F400039FF41EC1A0BB0EE4A0AF0EE6A0AFFF7DD
:100F50004BFDB0EE409AF0EE609A9FED070B53EC1C
:100F6000102B51EC190B02F0C3F841EC180B02F0F6
:100F700079F8BDEC0C8B70BDE79AD56194A94C4013
:100F80001CB5FFF7E5FAFFF7CDFCFFF74DFB00229C
:100F900002210A2001F010F90C490860002001210B
:100FA00003466422CDE9001009A10B4801F0C6FBFD
:100FB0000020012103462022CDE9001007A10948A5
:100FC00001F0BCFB00F02EFF00BFFEE70000002098
:100FD0005553415452310000551F000853504931B8
:100FE00000000000291D00082DE9F04105460E46CD
:100FF0001C4807681C480068001D00F0DBFC50B965
:101000001948006890F82C10012088401749096899
:10101000814316480160681C38B936B1124801682E
:10102000091D134800F019FD1AE07C190E480068EC
:101030004460BC4207D20C480168091D0D48006895
:1010400000F0F1FC0CE008480168091D0A4800683E
:1010500000F0E9FC09480068844201D207480460B6
:10106000BDE8F0812C000020180000203000002096
:101070005C490020200000201C00002048000020C7
:1010800010B5044600F0F6FC24480068401C2349D3
:1010900008602348006840B9214804600846006899
:1010A00001280DD100F098F90AE01E48006838B90F
:1010B0001B480068C06AE16A884201D81848046089
:1010C00019480068401C18490860084600682064F8
:1010D00094F82C10012088401449096808431349EA
:1010E0000860E16A01EB8101114A02EB8100211DD8
:1010F00000F0B3FC00F0E8FC0A48006868B108485A
:101100000068C06AE16A884207D24FF080500949FE
:101110000860BFF34F8FBFF36F8F10BD2800002012
:10112000180000203400002044000020300000207F
:10113000A848002004ED00E010B500F09BFC10482A
:101140000068D0B90F4800F05EFC0F4800F05BFC6F
:101150000C480E4908600C480D49086000220C211B
:101160000A2001F029F8064908600846006820B105
:1011700008A10348006800F01FFD00F0A5FC10BDA9
:101180005C000020704900208449002054000020A9
:1011900058000020546D72510000000010B516E098
:1011A00000F068FC0C48C068C468201D00F002FC18
:1011B0000A480068401E0949086009480068401E46
:1011C0000749086000F080FC204600F05FF8044802
:1011D00000680028E4D110BD484900202800002004
:1011E0002400002070B504460D46206C70B1216CBF
:1011F000E0680144E160D4E90210884201D321682B
:10120000E1602846226CE168FFF78EF870BD2DE999
:10121000F04104460F4615464FF00008A66B206CBF
:1012200048B9206800282CD1A06801F071FB8046E5
:101230000020A06025E07DB93946226C6068FFF788
:1012400073F8216C606808446060D4E90101884249
:1012500017D32068606014E03946226CE068FFF71D
:1012600063F8216CE068411AE1602168E068884217
:1012700003D2216CA068411AE160022D01D106B1B0
:10128000761E701CA0634046BDE8F08110B5044690
:10129000206B00F037FC204600F034FC10BD00004D
:1012A0000146084A126812680AB9012200E00022C9
:1012B0000A600A6822B9034A1268D268106800E01E
:1012C000002070475400002000BFFFF767FF06486A
:1012D00000680128F9D94FF0805004490860BFF335
:1012E0004F8FBFF36F8FF0E7A848002004ED00E0B8
:1012F0002DE9F04106460D4617469846069C0DB965
:10130000246000E02760E66325640121204600F0A8
:101310007DFF84F84C80BDE8F0812DE9F05F8246C6
:101320000E4690469B460A9F0C9C4FEA8801A522D8
:10133000206BFFF73EF8A8F10100216B01EB80095B
:1013400029F0070909F0070008B9012000E0002092
:1013500050B900BF502080F31188BFF34F8FBFF307
:101360006F8F00BF00BFFEE786B1002507E0715D0B
:1013700004F134004155705D00B902E06D1C0A2D86
:10138000F5D300BF00213D20015502E0002084F884
:101390003400052F00D30427E762A7640020E0642F
:1013A000201D00F03DFB04F1180000F039FB246122
:1013B000C7F10500A06164620020206584F8540034
:1013C0005A465146484600F0B9FA20600B9808B1D9
:1013D0000B980460BDE8F09F10B5002407E004EB13
:1013E00084010F4A02EB810000F00DFB641C052C08
:1013F000F5D30C4800F007FB0B4800F004FB0B484A
:1014000000F001FB0A4800F0FEFA0A4800F0FBFA7F
:1014100004480949086004480849086010BD0000F4
:10142000A84800200C490020204900203449002011
:10143000484900205C4900201C00002020000020BA
:101440002DE9F04104460D4616461F464FF00008B0
:1014500065602461B5420CD8F01BA169884202D3B3
:101460004FF0010811E0211D0948006800F0DBFA87
:101470000BE0BE4204D2BD4202D34FF0010804E0AB
:10148000211D0448006800F0CEFA4046BDE8F08116
:10149000580000205400002070B5054600F0EAFA1C
:1014A000A86B08B9012400E0002400F00DFB2046E1
:1014B00070BD70B5054600F0DDFAA86BE96B884297
:1014C00001D1012400E0002400F0FEFA204670BDA6
:1014D000F8B505460F461A480068C068C468201D64
:1014E00000F068FA94F8280000F00400E8B1A06960
:1014F00041192B463A462046FFF7A2FFD8B10020FB
:1015000003462A4601460090204601F05DFB064650
:1015100056B900BF502080F31188BFF34F8FBFF33F
:101520006F8F00BF00BFFEE705E094F8280020F0B1
:10153000010084F828002046216A8847F8BD000091
:101540005400002070B586B08BE003980028FBDBC8
:10155000059C606908B9012000E0002010B9201D39
:1015600000F028FA02A800F0DDF8054603980A28E2
:1015700075D2DFE800F009050739416306083A42F1
:1015800000BF00BF00BF00BF94F8280040F001007A
:1015900084F828000498A269811803462A46204648
:1015A000FFF74EFFF8B12046216A884794F82800DB
:1015B00000F00400B8B1002000900498A16942181E
:1015C00000231946204601F0FFFA064656B900BF2F
:1015D000502080F31188BFF34F8FBFF36F8F00BF90
:1015E00000BFFEE700BF3BE000BF94F8280020F0FA
:1015F000010084F8280033E000BF94F8280040F090
:10160000010084F828000498A061A06908B10120B5
:1016100000E0002050B900BF502080F31188BFF3D4
:101620004F8FBFF36F8F00BF00BFFEE7A069411966
:101630002B462A462046FFF703FF11E094F82800C6
:1016400000F0020018B9204600F05CFA05E094F8BA
:10165000280020F0010084F8280001E0FFE700BF27
:1016600000BF002203A90448006800F06DFF0028B5
:101670007FF46BAF06B070BD5C000020F8B5054686
:101680000C4600F019FC684600F04CF8064600983D
:1016900020BB44B9B54206D801F0EAF931462846E4
:1016A000FFF716FF1CE03CB10E480068006808B95F
:1016B000012000E000200446A91B22460A480068D9
:1016C00000F090FA01F0D4F950B94FF0805007497A
:1016D0000860BFF34F8FBFF36F8F01E001F0C8F9CF
:1016E000F8BD0000580000205C00002004ED00E080
:1016F0000A490968096809B9012100E0002121B1FE
:101700004FF0FF31064A116006E004490968C968D4
:10171000C868034A41681160704700001C0000203F
:101720004800002070B5044601F048F80546074817
:101730000068854204D200F00BF80120206001E02F
:101740000020206001480560284670BD640000202C
:101750002DE9F84334E025480068C068056823484F
:101760000068C068C468201D00F024F92046216A82
:10177000884794F8280000F0040008B3A0694619CF
:10178000AE4207D966602461211D1848006800F048
:101790004AF915E0002003462A46014600902046FB
:1017A00001F012FA074657B900BF502080F31188A4
:1017B000BFF34F8FBFF36F8F00BF00BFFEE700BFC7
:1017C0000A480068006808B9012000E000200028ED
:1017D000C1D00648D0F80080054800680349086079
:1017E0000348C0F80080BDE8F883000054000020E2
:1017F000580000200E480068401C08B9012000E095
:10180000002050B900BF502080F31188BFF34F8FE4
:10181000BFF36F8F00BF00BFFEE700BF502080F313
:101820001188BFF34F8FBFF36F8F00BF00BFFEE77C
:101830000C00002008B500BF6846FFF731FD0446E4
:1018400020460099FFF71AFFFFF77CFEF4E770B51A
:10185000044600F00FF994F9455010E0606A08B9A9
:10186000012000E0002038B904F1240001F0B4F8B0
:1018700018B100F017FA00E003E0681E45B2002D31
:10188000ECDC00BFFF2084F8450000F01DF900F0FB
:10189000F1F894F9445010E0206908B9012000E003
:1018A000002048B904F1100001F096F808B100F0EA
:1018B000F9F9681E45B200E001E0002DECDC00BF44
:1018C000FF2084F8440000F0FFF870BD70B50446B6
:1018D000002504F0070020B104F00700C0F1080063
:1018E000044400F0E9FA1248006820B9114820F0D9
:1018F00007000F49086010480068204444F2F8715E
:10190000884210D20C48006820440B49096888427C
:1019100009D9074800680849096845180648006859
:1019200020440549086001F0A3F8284670BD000076
:10193000080000207000002004000020001F4FF06D
:1019400080730360001F21F001030360001F054B3B
:10195000036014380260001F6FF002030360203838
:1019600070470000F517000838B50446002C04DA6B
:1019700065420EA000F058FB00E025460A2095FBCA
:10198000F0F100FB11503030C0B28DF801000A2098
:1019900095FBF0F03030C0B28DF80000684600F0E2
:1019A00043FB03A000F040FB38BD00002D00000009
:1019B0002020000001460A69D1E901309860D1E990
:1019C000010358605068884201D188685060002047
:1019D00008611068401E10601068704770B50446BA
:1019E00054B900BF502080F31188BFF34F8FBFF36D
:1019F0006F8F00BF00BFFEE700F03CF8A56B00F062
:101A000063F8284670BD00F1080141604FF0FF31D6
:101A1000816000F10801C16001610021016070472F
:101A200000210161704710B502460B685C1C0CB9BF
:101A3000106907E002F1080000E04068446824688B
:101A40009C42FAD944684C604C68A160886041604F
:101A50000A611468641C146010BD42684A6093688F
:101A60008B60936859609160086103685B1C036038
:101A70007047000000BF502080F31188BFF34F8FE4
:101A8000BFF36F8F00BF0E480068401C0C49086010
:101A900008460068012812D10A480068C0B208B997
:101AA000012000E0002050B900BF502080F31188D1
:101AB000BFF34F8FBFF36F8F00BF00BFFEE77047CC
:101AC0000C00002004ED00E00D48006850B900BF94
:101AD000502080F31188BFF34F8FBFF36F8F00BF8B
:101AE00000BFFEE706480068401E0549086008463A
:101AF000006820B9002080F3118800BF00BF704744
:101B00000C00002008B9012100E0002151B900BFFC
:101B1000502181F31188BFF34F8FBFF36F8F00BF48
:101B200000BFFEE77047000000204FF0E021086191
:101B30008861024848610720086170473F900200B1
:101B400070B5FEF7CDFB0446102C16D304F1E0204F
:101B500090F8F05315480078854201DB012000E041
:101B6000002050B900BF502080F31188BFF34F8F81
:101B7000BFF36F8F00BF00BFFEE70D48006800F4A1
:101B8000E0600C490968884201D8012000E000208B
:101B900050B900BF502080F31188BFF34F8FBFF3BF
:101BA0006F8F00BF00BFFEE770BD00001000002077
:101BB0000CED00E014000020024600200BE0084B72
:101BC00053F8303033B9064B43F8301003EBC00301
:101BD0005A6002E0401C0828F1D300BF70470000A3
:101BE000684800202DE9F04105460E4617462C4670
:101BF000FFF740FF94F94400401C10B9002084F81E
:101C0000440094F94500401C10B9002084F84500B8
:101C1000FFF75AFFA06B28B93A46314604F1240079
:101C200000F062F82046FFF712FEBDE8F0810000E8
:101C300070B504460025D4B11248006808B90120E7
:101C400000E0002050B900BF502080F31188BFF39E
:101C50004F8FBFF36F8F00BF00BFFEE700F02CF97E
:101C600000212046FFF7C0F900F002FF05463DB90C
:101C70004FF0805004490860BFF34F8FBFF36F8F60
:101C800070BD00005000002004ED00E00349096829
:101C9000016003490968416070470000400000206E
:101CA0002C00002001200149086070473C00002002
:101CB00070B504460D4654B900BF502080F311881A
:101CC000BFF34F8FBFF36F8F00BF00BFFEE7054824
:101CD000016818312046FFF7A6FE01212846FFF7CC
:101CE00083F970BD1800002070B505460E461446F5
:101CF00055B900BF502080F31188BFF34F8FBFF359
:101D00006F8F00BF00BFFEE7064801681831284604
:101D1000FFF7A3FE0CB14FF0FF3621463046FFF728
:101D200063F970BD180000200EB5002000E0401CD3
:101D300039498842FBDB67212020FEF7F9FC6AE085
:101D40002920FEF7BBFC02902B20FEF7B7FC019088
:101D50002D20FEF7B3FC00909DF9080010F1140F40
:101D600006DA2E48006840F480502C49086005E0EF
:101D70002A48006820F48050284908609DF908002E
:101D8000142806DD2548006840F480402349086097
:101D900005E02248006820F48040204908609DF951
:101DA000040010F1140F06DA1C48006840F40040EB
:101DB0001A49086005E01948006820F400401749F6
:101DC00008609DF90400142806DD1448006840F4FA
:101DD00000501249086005E01048006820F40050E7
:101DE0000E49086000231A4602A90D48006800F059
:101DF00059FA00231A4601A90948006800F052FA6E
:101E000000231A4669460648006800F04BFA4FF472
:101E1000FA70FFF70DFF93E740420F00140C0240E9
:101E2000000000201CB51D4800210B460C22CDE906
:101E300000101BA11C4800F081FC0446012C02D1BB
:101E400000F098FE0446012C15D100BF502080F30D
:101E50001188BFF34F8FBFF36F8F00BF4FF0FF307C
:101E600012490860012012490860002011490860E9
:101E700000F0EEF810E0601C08B1012000E0002046
:101E800050B900BF502080F31188BFF34F8FBFF3CC
:101E90006F8F00BF00BFFEE71CBD00004C0000209C
:101EA00049444C4500000000C912000848000020C9
:101EB000340000202C00002002480068401C01492A
:101EC00008607047500000201D48006818B10120CC
:101ED0001C49086032E000201A4908601A4800686E
:101EE000B0FA80F0C0F11F0101EB8100174A52F8EF
:101EF000200008B1012000E0002050B900BF5020B0
:101F000080F31188BFF34F8FBFF36F8F00BF00BF07
:101F1000FEE701EB81020D4B03EB82004268526841
:101F2000426000F108024368934202D1426852685D
:101F300042604268D268064B1A6000BF70470000DA
:101F4000500000203C00002030000020A848002065
:101F5000180000202DED048B82B09FED2B0BB0EE0E
:101F6000408AF0EE608A9FED280BB0EE409AF0EECA
:101F7000609A48E026480068FFF730FD002842D00C
:101F8000002201A92248006800F0DEFA9DF9044011
:101F9000002201A91E48006800F0D6FA9DF90450FD
:101FA000002201A91A48006800F0CEFA9DF90460E9
:101FB00018A000F039F8324629462046FEF760FFA7
:101FC000074601F07EF841EC180B51EC180B01F0BC
:101FD00049F80746FFF7C8FC10A000F025F8324684
:101FE00029462046FEF78CFF074601F06AF841ECCF
:101FF000190B51EC190B01F035F80746FFF7B4FC4B
:1020000008A000F011F8B5E7000000000000000093
:102010000000002078203D200000000079203D20B5
:10202000000000000D0A000000210BE000BF074A7D
:10203000128802F04002002AF9D0425C034B1B1DBB
:102040001A80491C425C002AF0D1704700440040CD
:102050001CB5524800685249884201D0012000E076
:10206000002050B900BF502080F31188BFF34F8F7C
:10207000BFF36F8F00BF00BFFEE7484800684849C4
:10208000491E884201D0012000E0002050B900BF65
:10209000502080F31188BFF34F8FBFF36F8F00BFC5
:1020A00000BFFEE73F49084600780190FF200A463E
:1020B00010700846007800909DF8000000F0F000D5
:1020C0009DF80020904201D1012000E0002050B98D
:1020D00000BF502080F31188BFF34F8FBFF36F8F85
:1020E00000BF00BFFEE79DF8000000F050002E4A40
:1020F000107007202D4A106009E02C480068401E2F
:102100002A4A10609DF800004006000E00909DF8DD
:10211000000000F080008028EFD024480068C0F163
:102120000700042801D1012000E0002050B900BFC1
:10213000502080F31188BFF34F8FBFF36F8F00BF24
:1021400000BFFEE7194800680002184A10601046F8
:10215000008800F4E0601060124A019810700F4887
:102160002030006840F470000C49203108600846B7
:10217000006840F070400860FFF7D6FC00200C4972
:102180000860FEF775F80B48006840F040400949C8
:102190000860FEF759F800201CBD000000ED00E0CB
:1021A00071C20F4100E400E0100000201400002084
:1021B0000C00002034EF00E02DE9F84305460E4600
:1021C00017460DB1012000E0002050B900BF50209B
:1021D00080F31188BFF34F8FBFF36F8F00BF00BF35
:1021E000FEE705FB06F808F15000FFF76FFB044619
:1021F0004CB1A14609F150093B464A4631462846B2
:102200000094FFF775F82046BDE8F88370B50546E1
:102210000E462C4654B900BF502080F31188BFF3FE
:102220004F8FBFF36F8F00BF00BFFEE7FFF722FCA9
:10223000D4E90F12206801FB0200A0600020A06317
:1022400020686060E06B401E226C216800FB021178
:10225000E160FF2084F8440084F845009EB92069BD
:1022600008B9012000E00020A8B904F1100000F036
:10227000B3FB80B14FF0805009490860BFF34F8F26
:10228000BFF36F8F07E004F11000FFF7BCFB04F110
:102290002400FFF7B8FBFFF717FC012070BD00001A
:1022A00004ED00E02DE9FF4383B0064688461D4655
:1022B0004FF00009344654B900BF502080F3118814
:1022C000BFF34F8FBFF36F8F00BF00BFFEE7B8F1C2
:1022D000000F01D1206C08B9012000E0002050B9A6
:1022E00000BF502080F31188BFF34F8FBFF36F8F73
:1022F00000BF00BFFEE7022D02D1E06B012801D133
:10230000012000E0002050B900BF502080F3118868
:10231000BFF34F8FBFF36F8F00BF00BFFEE700F02A
:102320003DFA08B9059808B9012000E0002050B92D
:1023300000BF502080F31188BFF34F8FBFF36F8F22
:1023400000BF00BFFEE700BFFFF794FBA06BE16B8F
:10235000884201D3022D28D12A4641462046FEF765
:1023600056FF0746606A08B9012000E0002068B9FE
:1023700004F1240000F030FB88B14FF08050324966
:102380000860BFF34F8FBFF36F8F08E03FB14FF08E
:1023900080502D490860BFF34F8FBFF36F8FFFF759
:1023A00093FB012007B0BDE8F083059818B9FFF74B
:1023B0008BFB0020F6E7B9F1000F04D101A8FFF76D
:1023C00065FC4FF00109FFF77FFBFFF775FDFFF795
:1023D00051FB94F94400401C10B9002084F84400DB
:1023E00094F94500401C10B9002084F84500FFF71F
:1023F0006BFB05A901A800F05BF9F0B92046FFF7D7
:1024000058F8A0B104F110000599FFF751FC2046DF
:10241000FFF71DFA00F02CFB002895D14FF08050FB
:1024200009490860BFF34F8FBFF36F8F8CE72046D9
:10243000FFF70DFA00F01CFB86E72046FFF707FACE
:1024400000F016FB0020ADE704ED00E02DE9F84FA9
:1024500007468A4690461E463C4654B900BF502067
:1024600080F31188BFF34F8FBFF36F8F00BF00BFA2
:10247000FEE7BAF1000F01D1206C08B9012000E09D
:10248000002050B900BF502080F31188BFF34F8F58
:10249000BFF36F8F00BF00BFFEE7022E02D1E06BDB
:1024A000012801D1012000E0002050B900BF5020D8
:1024B00080F31188BFF34F8FBFF36F8F00BF00BF52
:1024C000FEE7FFF73DFB00BF5021EFF3118081F3E2
:1024D0001188BFF34F8FBFF36F8F00BF0546A06B0E
:1024E000E16B884201D3022E25D194F945B0A06B4F
:1024F0000090324651462046FEF789FE0BF101005E
:1025000088B9606A08B9012000E0002050B904F1E0
:10251000240000F061FA28B1B8F1000F02D00120C8
:10252000C8F8000004E00BF1010040B284F8450057
:102530004FF0010901E04FF0000900BF85F3118859
:1025400000BF4846BDE8F88F2DE9F74183B0054646
:102550000E464FF000082C4654B900BF502080F3BF
:102560001188BFF34F8FBFF36F8F00BF00BFFEE72F
:102570000EB9206C08B9012000E0002050B900BF5E
:10258000502080F31188BFF34F8FBFF36F8F00BFD0
:1025900000BFFEE700F002F908B9059808B901206C
:1025A00000E0002050B900BF502080F31188BFF335
:1025B0004F8FBFF36F8F00BF00BFFEE700BFFFF775
:1025C00059FAA76BF7B131462046FEF70BFE781E8D
:1025D000A063206908B9012000E0002060B904F17F
:1025E000100000F0F9F938B14FF080502F49086021
:1025F000BFF34F8FBFF36F8FFFF766FA012006B06E
:10260000BDE8F081059818B9FFF75EFA0020F6E7FB
:10261000B8F1000F04D101A8FFF738FB4FF0010813
:10262000FFF752FAFFF748FCFFF724FA94F9440049
:10263000401C10B9002084F8440094F94500401C67
:1026400010B9002084F84500FFF73EFA05A901A85B
:1026500000F02EF8F0B92046FEF71EFFA0B104F1FD
:1026600024000599FFF724FB2046FFF7F0F800F05F
:10267000FFF90028A3D14FF080500C490860BFF348
:102680004F8FBFF36F8F9AE72046FFF7E0F800F017
:10269000EFF994E72046FFF7DAF800F0E9F9204671
:1026A000FEF7FAFE00288AD00020A8E704ED00E03B
:1026B00070B505460C4655B900BF502080F311880F
:1026C000BFF34F8FBFF36F8F00BF00BFFEE754B95A
:1026D00000BF502080F31188BFF34F8FBFF36F8F7F
:1026E00000BF00BFFEE7FFF7C5F91248026868683F
:1026F000131A2068401C08B9002617E00E49286804
:102700000968884204D06868904201D801260DE02B
:102710002068984207D92068C01A20602846FFF731
:10272000B5FA002602E0002020600126FFF7CCF970
:10273000304670BD2C000020400000202DE9FF4FE6
:1027400085B0804689461746DDE912ABB800FFF731
:10275000BDF8064656B15820FFF7B8F804460CB14C
:10276000266304E03046FFF7CDF900E000247CB199
:102770000020CDE900ABCDE902403A46494640464B
:10278000089BFEF7CAFD2046FEF77AFC012501E012
:102790004FF0FF35284609B0BDE8F08F05490968BC
:1027A00009B9012005E00449096809B9022000E0DF
:1027B00000207047340000205000002001490868C4
:1027C000704700002C0000202DE9F0414FF0000878
:1027D0004448006800287CD143480068451C4248B2
:1027E000056015BB41480068006808B9012000E099
:1027F000002050B900BF502080F31188BFF34F8FE5
:10280000BFF36F8F00BF00BFFEE738480768384846
:102810000068364908603648076036480068401C42
:1028200034490860FEF764FF00BF33480068854202
:102830003CD300BF2D480068006808B9012000E0C3
:10284000002020B14FF0FF302B4908602DE02748D1
:102850000068C068C4686668B54202D2264806604F
:1028600023E0201DFFF7A6F8A06A18B104F11800B4
:10287000FFF7A0F894F82C10012088401F49096840
:1028800008431E490860E16A01EB81011C4A02EB22
:102890008100211DFFF7E1F81A49E06A0968C96A59
:1028A0008842C7D34FF00108C4E700BF154800684D
:1028B000C06A00EB8000124951F82000012801D9BC
:1028C0004FF001081048006808B14FF0010805E01A
:1028D000FFE70E480068401C0C4908604046BDE810
:1028E000F0810000500000202C0000201C0000207F
:1028F0002000002040000020480000203000002080
:10290000A8480020180000203C00002038000020CB
:1029100070B505462C460026002D55D02B48006882
:10292000844201D1012000E0002050B900BF5020B6
:1029300080F31188BFF34F8FBFF36F8F00BF00BFCD
:10294000FEE7E06C50B900BF502080F31188BFF360
:102950004F8FBFF36F8F00BF00BFFEE7E06C401EDC
:10296000E064A16CE06A88422ED0E06C60BB201D60
:10297000FFF720F878B9E06A00EB8000144951F8BD
:10298000200040B994F82C100120884011490968B2
:10299000814310480160A06CE062E06AC0F105006C
:1029A000A06194F82C10012088400A490968084366
:1029B00008490860E16A01EB8101054A02EB8100E8
:1029C000211DFFF74AF80126304670BD180000208F
:1029D000A84800203000002070B50646F068C468A2
:1029E00054B900BF502080F31188BFF34F8FBFF35D
:1029F0006F8F00BF00BFFEE704F11800FEF7DAFF9B
:102A000015480068A8B9201DFEF7D4FF94F82C10D3
:102A10000120884011490968084310490860E16AAB
:102A200001EB81010E4A02EB8100211DFFF715F831
:102A300004E004F118010B48FFF70FF80A49E06AB7
:102A40000968C96A884204D901250120074908603C
:102A500000E00025284670BD500000203000002016
:102A6000A848002034490020180000203C00002025
:102A700070B5002400263648006850B900BF5020C9
:102A800080F31188BFF34F8FBFF36F8F00BF00BF7C
:102A9000FEE7FEF7EFFF2E480068401E2C49086055
:102AA0000846006800284FD12A48006800284BD00B
:102AB00024E02948C068C46804F11800FEF77AFFD2
:102AC000201DFEF777FF94F82C1001208840234941
:102AD0000968084321490860E16A01EB8101204A45
:102AE00002EB8100211DFEF7B8FF1E49E06A09686C
:102AF000C96A884202D301201B4908601648006851
:102B000008B9012000E000200028D2D00CB1FEF767
:102B1000EFFD1648056865B100BFFFF755FE10B11F
:102B20000120114908606D1E002DF6D100200F49CB
:102B300008600D48006838B1012630070C4908606C
:102B4000BFF34F8FBFF36F8FFEF7BEFF304670BDF0
:102B500050000020280000203449002030000020D0
:102B6000A8480020180000203C0000203800002069
:102B700004ED00E01CB50024FEF7DEFA0D48006805
:102B800050B10D48022100231822CDE900100BA1FD
:102B90000C48FFF7D3FD044654B900BF502080F322
:102BA0001188BFF34F8FBFF36F8F00BF00BFFEE7E9
:102BB00020461CBD5C00002060000020546D722087
:102BC00053766300351800082DE9FE4304460D4690
:102BD00016461F46DDF828804FF0000954B900BFA3
:102BE000502080F31188BFF34F8FBFF36F8F00BF6A
:102BF00000BFFEE71448006810B3009501960294E8
:102C0000062D15DAFFF7CAFD022808D10023424637
:102C100069460D480068FFF745FB814610E0002338
:102C20001A46694608480068FFF73CFB814607E002
:102C300000233A46694604480068FFF707FC8146CE
:102C40004846BDE8FE8300005C00002081F00041A2
:102C5000704780F00040704721F00041704720F03D
:102C60000040704710B591EA030F48BF83F000435E
:102C700000F11C84841A71EB030C05D2121943EB8A
:102C80000C03001B61EB0C01DFF824E14FEA115447
:102C9000A4EB135C1EEA430F18BF9EEA445F73D097
:102CA00023EA0E03DCF1200E21EA045143F48013E1
:102CB00032D322FA0CFE10EB0E0023FA0CFE41EB8D
:102CC0000E01CCF1200E03FA0EFE10EB0E0051F1B6
:102CD0000001B1F5801FCCF1200E32D201EB04517E
:102CE00012FA0EF2BDE8104058BF7047401C38BFC2
:102CF0005FEA420218BF7047002814BF20F00100AD
:102D000041F100014FEA410313F5001F38BF70473E
:102D1000A1F1C04100F0E4BA012A43EB0302ACF197
:102D2000200CDCF11F0E32BF4FF0000E23FA0CF323
:102D300010EB030041EB0451B4EB115FD0D0A1EBD9
:102D4000045101F5801149085FEA300001EB04519C
:102D50000ED350F1000038BF12FA0EFE08D1BDE8C4
:102D60001040C9E7401C38BF5FEA4202CAD1C3E73E
:102D7000BDE810404FEA410313F5001F38BF70470C
:102D8000A1F1C04100F0ACBA9EEA445F08D011EA5C
:102D90005E0FBDE8104004BF01F000410020704705
:102DA000BDE8104070B500F04DFA00BF64FBBE3EB8
:102DB0000000E0FF2DE9C04130B4DFF8A0C23CEADA
:102DC000111418BF3CEA131400F0EC8081EA0305EB
:102DD0001CEA111444EAD57418BF1CEA131500F05C
:102DE000C780A4EB05044FF0004545EAC12145EA40
:102DF000C32341EA505143EA525304F17F7499428C
:102E000004F500344FEAC0204FEAC22208BF9042C6
:102E100000F09C804FEA13650FF24016765D4FEA92
:102E2000134506FB05F7C7F1807706FB07F74FEA66
:102E3000D737A7FB03687642C8F58038A7FB06CED4
:102E400038BFA8F1010807FB08E64FF0000EA6FB0B
:102E5000028CE6FB03CEDCF1000CCEF1004E38BF55
:102E6000AEF1010EA6FB0C584FF000074FF0000525
:102E7000E6FB0E87A1FB08C6A0FB07CE16EB0E06ED
:102E800045F10005E1FB076515F1E04E7EBFA4F5B5
:102E900080345FEA46066D4116F1800745F1000572
:102EA0004FEA17274FEA066647EA0567A6F1DE46AE
:102EB000B6F1805F4FEA15251FD9384624F0010C82
:102EC00005EBC471BCF1FE6F01EB0C1102D8F0BC34
:102ED000BDE8008124425CBF01F5801E9EEAC47FEC
:102EE00002D4F0BCBDE80081244238D4F0BCA1F18A
:102EF000C041BDE8004100F0F3B94FEAD22242EAF6
:102F000043524FEAD323A7FB02864FEAD02040EA80
:102F1000415007FB03661EEA0E0F4FEAD12105FB65
:102F2000026658BFA6EB0056B6EB00564FEA520EAB
:102F30004EEAC37E18EB0E0E56EB530EBDD518EBC2
:102F400002085E417F1C55F10005B6E74FF480157D
:102F50004FF000074FF000064FF00008ADE7F0BC5F
:102F60004FF0000001F1C04101F00041BDE80081D7
:102F700011EA0C1F0CEA131500D00CE013EA0C1F29
:102F800000F025804FF00000F0BC81EA030101F061
:102F90000041BDE80081F0BCBDE8004181EA0301C9
:102FA00000F09EB9F0BCBDE8004170B500F04AF9F0
:102FB000097EFC3E00F007B881EA03014FF00000F3
:102FC00001F00041704781EA030100F089B9F0BCCB
:102FD000BDE800414FF0000021497047FFFDFBF9BB
:102FE000F7F5F4F2F0EEEDEBE9E8E6E4E3E1E0DE3C
:102FF000DDDBDAD8D7D5D4D3D1D0CFCDCCCBCAC8AE
:10300000C7C6C5C4C2C1C0BFBEBDBCBBBAB9B8B7D4
:10301000B6B5B4B3B2B1B0AFAEADACABAAA9A8A8C7
:10302000A7A6A5A4A3A3A2A1A09F9F9E9D9C9C9B95
:103030009A99999897979695959493939291919040
:103040008F8F8E8E8D8C8C8B8B8A898988888787D1
:103050008685858484838382828181800000FF0746
:103060000000F87F4FEA41034FEA5353A3F5806312
:10307000D3F11E03C8BFD3F1210C0CDD4FF0004289
:1030800042EAC12242EA505232FA03FC8CEAE17C65
:10309000ACEBE1707047102BC4BF0020704703F504
:1030A000787CBCF1FF3F04D06FF0004282EA21003F
:1030B000704770B500F0C6F8499224800020704730
:1030C000F2E710F0004248BF4042B0FA80F310FA35
:1030D00003F10AD0C3F11D0303F580634FEA4150A9
:1030E00002EB035202EBD12170474FF00000704712
:1030F000DFF848C170B51CEA111E1EBF1CEA13158B
:103100009EEA0C0F95EA0C0F00F06F8081EA030431
:1031100023EA4C134EEAD47E21EA4C1141F480118B
:1031200043F48013AE44A1FB024CA0FB0365AEF157
:103130007F7E361955EB0C05A1FB034C4CF10003C7
:10314000A0FB021C16EB0C06654153F1000309427B
:1031500018BF46F0010613F4007F0BD14FEA03318C
:103160004FEA0530340341EA155140EA16506FF03A
:1031700003020AE04FEAC3214FEAC520F40241EA04
:10318000555140EA56506FF0020202EB2E4201EB1D
:10319000025585EACE710AD05FEA440C18BF24F0CC
:1031A000004450F1000041F1000120EAD47040F2E7
:1031B000FE7C624500D270BDA84214BF4FF080442F
:1031C0004FF04044002E08BF0024BEF1806FA8BF1E
:1031D000A1F1C041BDE8704080F282804FF0000054
:1031E00001F1C04101F0004170479EEA0C0F0CEA6A
:1031F000131518BF95EA0C0F06D04FF0000081EAB6
:10320000030E0EF0004170BD00F01CF88900013E75
:1032100000F007B800F009B84FEA430C5FEA5C5CC5
:1032200008D081EA030100F05BB84FEA410C5FEA85
:103230005C5CF6D14FF00000014970470000FF07C9
:103240000000F87F0EF1020E2EF0030E5EF8046B04
:10325000364205D4012A43EB030515F5001F12D8A9
:10326000012841EB010C1CF5001F0CD80ED14FEAD0
:10327000D17C15F5001F0CEB4C0C0CF1020C08BFB7
:103280004CEBD37C04E04FF0080C01E04FEAD37C18
:103290000CEB4C0526FA05F606F00706B6F1040C11
:1032A00006D20EEB860CBDE870404CF0010C604776
:1032B000DFE80CF0090B02024FF000414FF0000074
:1032C000A1F5002170BD19461046012851EB0104FB
:1032D00018BFD4F5001484BF002001F0004170BD78
:1032E0000808A0F500114FEA3101704791EA030F79
:1032F00010B581F000413FF5BDAC83F0004300F014
:10330000D5B800002DE9F04101F5801CBCF5001F87
:10331000C0F2A9804FEA115C21EA0C510CF1FD0CBE
:1033200041F480115FEA5C0C0CF5C07C01D34000D5
:10333000494130A4890241EA905187028E0E0A0C5D
:10334000A45D04FB04F602FB06F6C6F14046A4FBAE
:103350000662F60D46EA422606FB06F4A4FB0123AC
:103360005242C3F1404338BF5B1EA6FB0242002419
:10337000E6FB0324D20B42EA4446A6FB0623A1FB4C
:1033800002E2A3FB07E4E3FB61426442C2F1404E68
:1033900038BFAEF1010EA6FB04234FF00002E6FB9E
:1033A0000E32A2FB03463400E2FB6264A1FB06E698
:1033B000A4FB07E8E4FB61687642C8F1405838BFD7
:1033C000A8F10108A2FB06E4A3FB08E5E2FB6854B0
:1033D000A1FB05E6A7FB04E8E1FB648618F12005E4
:1033E00056F10006A809A8F11B08B10908F03F082A
:1033F000B8F10A0F40EA86601CD901EB0C51BDE818
:10340000F08100BFFCF5EEE8E2DDD8D3CFCBC7C337
:10341000C0BDB9B6B4B1AEACA9A7A5A3A19F9D9BF1
:103420009A9896959392908F8D8C8B8988878685B4
:1034300084838281A0FB006800FB01F208EB420854
:10344000B8EB872807D5341858EB0104D5D5401CB4
:1034500051F10001D1E7341A78EB0104CDD4401EBC
:1034600071F10001C9E75FEA4C0C5FEA9C5C0DD189
:1034700005D34FF0000001F00041BDE8F081BDE848
:10348000F04170B5FFF7DEFE6DDBFFBEBDE8F04139
:103490004FF00000004970470000F87F10B591EA36
:1034A000030F48BF83F000433FF5E4AB841A71EB90
:1034B000030C07D212198CF0004C43EB0C03001BD9
:1034C00061EB0C01DFF8A4E14FEA1154A4EB135CAB
:1034D0001EEA430F18BF9EEA445F00F0B08023EA63
:1034E0006E03524221EA0451C3EB6E0338BF5B1EE8
:1034F000DCF1200E25D322FA0CFE10EB0E0043FA6D
:103500000CFE41EB0E01CCF1200E03FA0EFE10EB87
:103510000E0051F10001CCF1200E29D412FA0EF266
:1035200001EB0451BDE8104058BF7047401C1CBF60
:10353000B2F1004F704700280CBF491C20F0010079
:10354000704712EB020E43EB030218BF4FF0010E5F
:103550004EEA4202ACF1200CDCF11E0E54D943FAC3
:103560000CFE10EB0E0051F1FF31CCF11E0ED5D543
:103570000EF1010E12FA0EFE404141EB010101EB8A
:10358000445C5FEA5C5C10D910EBDE7001EB045127
:1035900038BFBEF1004FBDE8104018BF704700288B
:1035A0000CBF491C20F00100704730D24FEAD42CE8
:1035B00011F5001124F400641BD0B1FA81F20B3A2A
:1035C000A41AA41ED2F12003914030FA03F3194348
:1035D000904001EBCC71002C01EB0451BDE8104090
:1035E000A8BF704701F1C0414FF0000001F0004159
:1035F0007047B0FA80F310FA03F100D110BDE41A5D
:10360000173C4805C90AE4E701EB045110BD491015
:1036100001EB0451BDE810404FEA300002E04FF0EA
:10362000000170474A0008BF0042F8D0B2F5001F01
:1036300028BF704701F000414FF0000070479EEA3C
:10364000445F07D011EA5E0FBDE8104004BF0021BF
:1036500000207047BDE8104070B5FFF7F3FD00BFD4
:1036600040DFF63E83F00041104670470000E0FF67
:103670004FF04070E1EE100A7047000000000000BB
:103680004FBB610567ACDD3F182D4454FB21E93F7A
:103690009BF681D20B73EF3F182D4454FB21F93F69
:1036A000E2652F227F2B7A3C075C143326A6813CEF
:1036B000BDCBF07A8807703C075C143326A6913C9A
:1036C000C4EB98999999C9BF711623FEC671BCBF06
:1036D0006D9A74AFF2B0B3BF9AFDDE522DDEADBF6E
:1036E0002F6C6A2C44B4A2BF0D5555555555D53F86
:1036F000FF8300922449C23F6E204CC5CD45B73FA1
:10370000513DD0A0660DB13FEB0D76244B7BA93F18
:1037100011DA22E33AAD903F38370008000000206C
:1037200068000000C4010008A037000868000020FD
:10373000904F0000E00100080000000000000000C1
:1037400000000000AAAAAAAA0000000000000000D1
:103750000000000000000000000000000000000069
:103760000000000000000000000000000000000059
:103770000000000000000000000000000000000049
:103780000000000000000000000000000000000039
:103790000000000000000000000000000000000029
:04000005080002E904
:00000001FF
